{
  "contractName": "C",
  "abi": [
    {
      "constant": true,
      "inputs": [
        {
          "name": "a",
          "type": "uint256"
        },
        {
          "name": "b",
          "type": "uint256"
        }
      ],
      "name": "f",
      "outputs": [
        {
          "name": "",
          "type": "uint256"
        }
      ],
      "payable": false,
      "stateMutability": "view",
      "type": "function"
    },
    {
      "constant": false,
      "inputs": [
        {
          "name": "s",
          "type": "string"
        }
      ],
      "name": "ff",
      "outputs": [
        {
          "name": "",
          "type": "uint256"
        }
      ],
      "payable": false,
      "stateMutability": "nonpayable",
      "type": "function"
    },
    {
      "constant": true,
      "inputs": [
        {
          "name": "a",
          "type": "uint256"
        },
        {
          "name": "b",
          "type": "uint256"
        }
      ],
      "name": "f2",
      "outputs": [
        {
          "name": "",
          "type": "uint256"
        }
      ],
      "payable": false,
      "stateMutability": "pure",
      "type": "function"
    },
    {
      "payable": true,
      "stateMutability": "payable",
      "type": "fallback"
    },
    {
      "anonymous": false,
      "inputs": [
        {
          "indexed": false,
          "name": "_value",
          "type": "uint256"
        }
      ],
      "name": "TestEvent",
      "type": "event"
    },
    {
      "anonymous": false,
      "inputs": [
        {
          "indexed": false,
          "name": "_value",
          "type": "uint256"
        },
        {
          "indexed": false,
          "name": "_svalue",
          "type": "string"
        }
      ],
      "name": "TestEventS",
      "type": "event"
    }
  ],
  "bytecode": "0x6060604052341561000f57600080fd5b6102488061001e6000396000f300606060405260043610610057576000357c0100000000000000000000000000000000000000000000000000000000900463ffffffff16806313d1aa2e146100595780633e72df4114610099578063e9f1c4c31461010a575b005b341561006457600080fd5b610083600480803590602001909190803590602001909190505061014a565b6040518082815260200191505060405180910390f35b34156100a457600080fd5b6100f4600480803590602001908201803590602001908080601f0160208091040260200160405190810160405280939291908181526020018383808284378201915050505050509190505061015c565b6040518082815260200191505060405180910390f35b341561011557600080fd5b610134600480803590602001909190803590602001909190505061020c565b6040518082815260200191505060405180910390f35b600042602a8301840201905092915050565b60007f4715ee3db2ec6fab1e59544dcb3b2c56f2b0a732a686d2cddc343325a9dbd0fd6001836040518083815260200180602001828103825283818151815260200191508051906020019080838360005b838110156101c85780820151818401526020810190506101ad565b50505050905090810190601f1680156101f55780820380516001836020036101000a031916815260200191505b50935050505060405180910390a160019050919050565b6000602a820183029050929150505600a165627a7a72305820f76570c1e4115063ca5cc42d8456cb1c96fd78d7de9ec1f02308d99ddb219c810029",
  "source": "pragma solidity ^0.4.16;\n\ncontract C {\n    event TestEvent(\n        uint _value\n    );\n\n    event TestEventS(\n        uint _value,\n        string _svalue\n    );\n    function() public payable { }\n\n\n    function ff(string s) public returns (uint) {\n        TestEventS(1, s);\n        return 1;\n    }\n\n    function f(uint a, uint b) public view returns (uint) { // not mutable state\n        return a * (b + 42) + now;\n    }\n    function f2(uint a, uint b) public pure returns (uint) { // not mutable state\n        return a * (b + 42);\n    }    \n}\n",
  "sourcePath": "/Users/stan/Dev/SPREAD/flow_manage/contracts/C.sol",
  "compiler": {
    "name": "solc",
    "version": "0.4.18+commit.9cf6e910.Emscripten.clang"
  },
  "schemaVersion": "1.0.1",
  "updatedAt": "2018-01-09T06:37:11.219Z"
}